:100000000A128A11FC2F00308A000408840A820731
:10001000003468347434743470343A342F342F34E8
:100020006E3476347434693465346E3461346E34CD
:1000300068342E3463346F346D3400344C344334BC
:10004000443420344C346934623472346134723450
:100050007934203466346F34723400344434653477
:10006000763465346C346F347034653464342034E1
:100070004234793400344D3450344C3441344234B9
:10008000203458344334383400346E347634743485
:0E009000693465346E3461346E346834003483
:100C6C00831688010A128A1180270A128A110A1225
:100C7C008A111B270A128A110130F401F40A0A1294
:100C8C008A1165270A128A1116300A128A11212735
:100C9C000A128A110230F401F40A0A128A11652729
:100CAC000A128A1133300A128A1121270A128A1168
:100CBC001530FB004B30FA00D130F900F90B642EE3
:100CCC00FA0B642EFB0B642E00000A128A111B27F0
:100CDC000A128A110130F401F40A0A128A116527EA
:100CEC000A128A1126300A128A1121270A128A1135
:100CFC000230F401F40A0A128A1165270A128A11C9
:100D0C003D300A128A1121270A128A111530FB0074
:100D1C004B30FA00D130F900F90B922EFA0B922ECF
:100D2C00FB0B922E00000A128A111B270A128A1141
:100D3C000130F401F40A0A128A1165270A128A1189
:100D4C0001300A128A1121270A128A11FC01FD01B5
:100D5C000430FB000C30FA003530F900F90BB42EDE
:100D6C00FA0BB42EFB0BB42EBB2E0A128A111527CC
:100D7C000A128A1109270A128A1103197C02031C10
:100D8C00AE2EFC01FD010430FB000C30FA003530B6
:100D9C00F900F90BCF2EFA0BCF2EFB0BCF2ED62E44
:100DAC000A128A110F270A128A1109270A128A11AC
:100DBC0003197C02031CC92E0A128A111B270A1262
:100DCC008A110230F401F40A0A128A1165270A12F8
:100DDC008A1165300A128A113E270A128A11533081
:100DEC000A128A113E270A128A111530FB004B3069
:100DFC00FA00D130F900F90B012FFA0B012FFB0B84
:100E0C00012F00003D2EFC0A0319FD0A00307D0263
:100E1C000F340130C4270A128A110C30C42F013050
:100E2C00C4270A128A110830C42F0030C4270A12B2
:100E3C008A110130C42FF700F501F6017508770708
:100E4C0084000A128A1103200A128A11003803192D
:100E5C0008007508770784000A128A1103200A1209
:100E6C008A113E270A128A11F50A0319F60A242F51
:100E7C00F400F2000F30F2057408F300F030F305C3
:100E8C00831203130815730E0F39DA270A128A110D
:100E9C0088151A30F100F10B512F00008312031347
:100EAC0088117208DA270A128A1188151A30F10093
:100EBC00F10B5E2F00008312031388110800F5005C
:100ECC00750B722F74087F3EF2270A128A11C42701
:100EDC000A128A117708C42F7508023A031D0800FC
:100EEC007408BF3EF2270A128A11C4270A128A110B
:100EFC007708C42F0030DA270A128A113430F50033
:100F0C00F130F400F40B882FF50B882F8D2F033064
:100F1C00C4270A128A110D30F500FB30F400F40BD3
:100F2C00952FF50B952F9A2F0330C4270A128A118F
:100F3C001D30F5009130F400F40BA22FF50BA22F0D
:100F4C000330C4270A128A110230C4270A128A11EC
:100F5C000230C4270A128A110830C4270A128A11D7
:100F6C000030C4270A128A110C30C4270A128A11C5
:100F7C000030C4270A128A110630C42FF3008312E2
:100F8C00031308117308DA270A128A1188150B301B
:100F9C00F2006230F100F10BD12FF20BD12F0000D7
:100FAC008312031388110800F000701CE02F8312C9
:100FBC000816E22F83120812F01CE62F8816E72F72
:100FCC008812701DEB2F0817EC2F0813F01DF02F53
:100FDC008817080088130800F800780E0F39F600FF
:100FEC007808F7000F30F7057608080083010A121D
:040FFC008A11362EF2
:02400E007AFF37
:00000001FF
